:0A0000000C946A000C9400000C94AC
:10000A0000000C9400000C9400000C9400000C9466
:10001A0000000C9400000C9400000C9400000C9456
:10002A0000000C9400000C9400000C9400000C9446
:10003A0000000C9400000C9400000C9400000C9436
:10004A0000000C9400000C9400001027E8036400E0
:10005A000A000100001000011000010030313233A3
:10006A0034353637383900005757572E4E414D49E7
:10007A004E49432E434F4D0A0D000A0D70726573A7
:10008A007320616E79206E756D626572206F7220C1
:10009A0027652720666F7220657869743A000A0D11
:1000AA00796F75722073657269616C2069733A257C
:1000BA0073000A0D7468652070726F6772616D2033
:1000CA00697320656E6465642E00F894EE27ECBBB4
:1000DA00F1E0FBBFEBBFE5BFF8E1F1BDE1BD8DE0AB
:1000EA00A2E0BB27ED938A95E9F780E098E0A0E6C5
:1000FA00ED930197E9F7EFE5EDBFE8E0EEBFC0E663
:10010A00D2E00C9488002B978BE0A0E0B0E0E6E602
:10011A00F0E00E94DE0210E0E0E0EBB9E8E1EAB9C3
:10012A00E6E8E0BDE0E0E0BDE3E3E9B9E2E7F0E0FC
:10013A000E948F02153661F1E4E8F0E00E948F0216
:10014A00EDB7FEB7FA93EA931F93A1E0B0E00E94DD
:10015A00DE001F91103310F01A3308F014C0E12F9B
:10016A00F0E0F097DE01EA0FFB1F9F01E8EAF0E0FA
:10017A00FA93EA93F901662777270E94CB0284E073
:10018A000E9451022696E1E8F0E00E948F02D2CF47
:10019A00ECEBF0E00E948F02FFCFFFCF5F9BFECF18
:1001AA00ECB10895AA935D9BFECFE881ECB9219644
:1001BA000895BA93AA930E94D0020E811F812885BE
:1001CA003985002E012AD9F0E9DF5E2F583051F423
:1001DA00AE81BF810A171B0720F4215030400F5F00
:1001EA001F4FF2CF5A3059F03F932F932F5F3F4F53
:1001FA00E52FAF91BF91EC9301501040E2CFD901A6
:10020A00E0E0EC93E885F9850E94D7022A960895E2
:10021A00BA93AA93AA81C6DFA881B981ED91FD910B
:10022A003196FE93EE9323960895BA93AA9326974E
:10023A000E94D00210E0AC85BD85E0E0F0E0ED93CD
:10024A00FC93EA89FB893196EA8BFB8B3197E4911F
:10025A002E2FE03011F40C944902E12FE03039F4EA
:10026A00253211F411E002C00E9496020CC1E1305D
:10027A00A9F4253219F40E94960204C112E040E062
:10028A0000E02D3211F401E0FEC02B3211F44BE2F2
:10029A00FAC0203211F440E2F6C002C0E23039F46A
:1002AA0050E013E0203311F40068EDC004C0E330DD
:1002BA0011F00C944802203310F02A3308F007C0DA
:1002CA00AAE05A9F502DE22FE0535E0FDCC0E22FC6
:1002DA00E33649F40E949D02E889F989A481AA9328
:1002EA000E94A302CFC0E33741F40E949D020E94FC
:1002FA00A9020E9476021E2F0AC0E03761F40E940A
:10030A009D020E94A9020E9482021E2F08600260BA
:10031A000F7730E035C0E43611F0E93611F40460A5
:10032A0002C0E53731F4E4E5F0E0EE83FF8315E03F
:10033A000DC0E83511F4086004C0E83711F00C94D8
:10034A004702EEE5F0E0EE83FF8314E002FF14C0FB
:10035A000E949D020E94B302AB85AA233AF4EA8561
:10036A00FB850E94BF02EA87FB874DE2403011F00D
:10037A001F5F01C00B7F04C00E949D020E94B3024E
:10038A0000FD11C0151778F407FF08C002FF04C06A
:10039A000B7F242F115001C020E301C020E20E94EC
:1003AA0096025150EFCF312F01FF17C03030A1F024
:1003BA0003FF06C0EE81FF812591EE83FF8305C00E
:1003CA00AE81BF812D91AE83BF830E9496025030C9
:1003DA0009F051503150EACF4BC020E3EE81FF8142
:1003EA000E94C702E887F987EE81FF813296EE8381
:1003FA00FF83E885F985AA85BB85AE17BF0750F04C
:10040A002F5FA885B985EA85FB85EA1BFB0BEA877E
:10041A00FB87EFCF2A3328F003FF02C0295F01C010
:10042A00295D04FD1AC0213320F4A885B9851197E6
:10043A0009F409C0531710F000FF01C013C020E2ED
:10044A0007FF0BC020E3006102FF07C00B7F4A933E
:10045A000E94A302503009F051500E949602503077
:10046A0009F051503150A885B985129708F0B5CFD7
:10047A0000FF08C0503031F05150E0E2EA930E9488
:10048A00A302F8CF10E0DDCEAC85BD850E94C30281
:10049A000E94D70264960895FF92F82E26971A931F
:1004AA000A93DE0114960E94BB028D01E0E0EC8300
:1004BA00ED83EE83EF83DE0118960E94BB020E9451
:1004CA00C302FA93EA931A930A93EDE0F1E0FA93DE
:1004DA00EA93DE011896A9DE198108812896FF9011
:1004EA000895BA93AA93A991B991EE27FF276D911E
:1004FA00662311F03196FBCF0895BA93AA93AA27DF
:10050A00BB27E991F9910590002011F01196FBCFD4
:10051A00FD010895FA93EA9380E00E94510222961F
:10052A0008952A93AD85BE85EF85F88909950895C2
:10053A00E889F9893497E88BF98B0895AD85BE85EA
:10054A00EF85F88909950895A889B98914960E94B2
:10055A00C302EE83FF83AE81BF810895A889B9895A
:10056A0014960E94C302EA87FB8708950024AF0D00
:10057A00B01D0895F195E195F0400895ED91FC9133
:10058A00119708950590F491E02D08957A936A934E
:10059A00FA93EA9308955A934A933A932A931A93A9
:1005AA000A9308955D814C813B812A8119810881D2
:1005BA000895AC0FBD1F05900D928A95E1F7089535
:00000001FF
